{
  "contractName": "BettingApp",
  "abi": [
    {
      "constant": true,
      "inputs": [],
      "name": "availableAddresses",
      "outputs": [
        {
          "name": "",
          "type": "uint256"
        }
      ],
      "payable": false,
      "stateMutability": "view",
      "type": "function",
      "signature": "0x1fda43f5"
    },
    {
      "constant": true,
      "inputs": [],
      "name": "totalBetUpAmount",
      "outputs": [
        {
          "name": "",
          "type": "uint256"
        }
      ],
      "payable": false,
      "stateMutability": "view",
      "type": "function",
      "signature": "0x4585acd8"
    },
    {
      "constant": true,
      "inputs": [
        {
          "name": "",
          "type": "uint256"
        }
      ],
      "name": "Bets",
      "outputs": [
        {
          "name": "playerAddress",
          "type": "address"
        },
        {
          "name": "betType",
          "type": "uint8"
        },
        {
          "name": "amount",
          "type": "uint256"
        }
      ],
      "payable": false,
      "stateMutability": "view",
      "type": "function",
      "signature": "0x532a5fe8"
    },
    {
      "constant": true,
      "inputs": [],
      "name": "totalBetAmount",
      "outputs": [
        {
          "name": "",
          "type": "uint256"
        }
      ],
      "payable": false,
      "stateMutability": "view",
      "type": "function",
      "signature": "0x613f4594"
    },
    {
      "constant": true,
      "inputs": [],
      "name": "unusedAddressId",
      "outputs": [
        {
          "name": "",
          "type": "uint256"
        }
      ],
      "payable": false,
      "stateMutability": "view",
      "type": "function",
      "signature": "0x7b4c516d"
    },
    {
      "constant": true,
      "inputs": [],
      "name": "totalBetDownAmount",
      "outputs": [
        {
          "name": "",
          "type": "uint256"
        }
      ],
      "payable": false,
      "stateMutability": "view",
      "type": "function",
      "signature": "0xa3fb37d7"
    },
    {
      "constant": true,
      "inputs": [],
      "name": "contractOwner",
      "outputs": [
        {
          "name": "",
          "type": "address"
        }
      ],
      "payable": false,
      "stateMutability": "view",
      "type": "function",
      "signature": "0xce606ee0"
    },
    {
      "constant": true,
      "inputs": [],
      "name": "newAddressId",
      "outputs": [
        {
          "name": "",
          "type": "uint256"
        }
      ],
      "payable": false,
      "stateMutability": "view",
      "type": "function",
      "signature": "0xf60cc2af"
    },
    {
      "inputs": [],
      "payable": false,
      "stateMutability": "nonpayable",
      "type": "constructor",
      "signature": "constructor"
    },
    {
      "constant": false,
      "inputs": [
        {
          "name": "_username",
          "type": "string"
        },
        {
          "name": "_password",
          "type": "string"
        }
      ],
      "name": "registerUser",
      "outputs": [
        {
          "name": "",
          "type": "bool"
        }
      ],
      "payable": false,
      "stateMutability": "nonpayable",
      "type": "function",
      "signature": "0x1d2e4afd"
    },
    {
      "constant": true,
      "inputs": [
        {
          "name": "_username",
          "type": "string"
        }
      ],
      "name": "checkIfUserExist",
      "outputs": [
        {
          "name": "",
          "type": "bool"
        }
      ],
      "payable": false,
      "stateMutability": "view",
      "type": "function",
      "signature": "0xd98531f2"
    },
    {
      "constant": true,
      "inputs": [
        {
          "name": "_username",
          "type": "string"
        },
        {
          "name": "_password",
          "type": "string"
        }
      ],
      "name": "logIn",
      "outputs": [
        {
          "name": "",
          "type": "bool"
        }
      ],
      "payable": false,
      "stateMutability": "view",
      "type": "function",
      "signature": "0x1cbfc466"
    },
    {
      "constant": true,
      "inputs": [
        {
          "name": "_username",
          "type": "string"
        },
        {
          "name": "_password",
          "type": "string"
        }
      ],
      "name": "getUserLoggedInAddress",
      "outputs": [
        {
          "name": "",
          "type": "address"
        }
      ],
      "payable": false,
      "stateMutability": "view",
      "type": "function",
      "signature": "0x364b59d8"
    },
    {
      "constant": false,
      "inputs": [
        {
          "name": "_addressToAsign",
          "type": "address"
        },
        {
          "name": "_password",
          "type": "string"
        }
      ],
      "name": "createNewAddress",
      "outputs": [
        {
          "name": "",
          "type": "bool"
        }
      ],
      "payable": false,
      "stateMutability": "nonpayable",
      "type": "function",
      "signature": "0x4f4c66f0"
    },
    {
      "constant": true,
      "inputs": [
        {
          "name": "_address",
          "type": "address"
        }
      ],
      "name": "getAddressPass",
      "outputs": [
        {
          "name": "password",
          "type": "string"
        }
      ],
      "payable": false,
      "stateMutability": "view",
      "type": "function",
      "signature": "0x44563d60"
    },
    {
      "constant": true,
      "inputs": [],
      "name": "getAvailableAddresses",
      "outputs": [
        {
          "name": "number",
          "type": "uint256"
        }
      ],
      "payable": false,
      "stateMutability": "view",
      "type": "function",
      "signature": "0xc64c8950"
    },
    {
      "constant": false,
      "inputs": [
        {
          "name": "_type",
          "type": "uint8"
        }
      ],
      "name": "purchaseBet",
      "outputs": [],
      "payable": true,
      "stateMutability": "payable",
      "type": "function",
      "signature": "0x8fcfab25"
    },
    {
      "constant": false,
      "inputs": [
        {
          "name": "_winningType",
          "type": "uint8"
        }
      ],
      "name": "payWinnigBets",
      "outputs": [],
      "payable": false,
      "stateMutability": "nonpayable",
      "type": "function",
      "signature": "0x46da4ceb"
    }
  ],
  "bytecode": "0x608060405234801561001057600080fd5b50336000806101000a81548173ffffffffffffffffffffffffffffffffffffffff021916908373ffffffffffffffffffffffffffffffffffffffff160217905550600060028190555060006001819055506000600381905550600060048190555060006005819055506000600681905550611dce806100906000396000f3fe6080604052600436106100f1576000357c0100000000000000000000000000000000000000000000000000000000900463ffffffff1680631cbfc466146100f65780631d2e4afd1461026d5780631fda43f5146103e4578063364b59d81461040f57806344563d60146105ae5780634585acd81461067857806346da4ceb146106a35780634f4c66f0146106e1578063532a5fe8146107e1578063613f4594146108705780637b4c516d1461089b5780638fcfab25146108c6578063a3fb37d7146108f7578063c64c895014610922578063ce606ee01461094d578063d98531f2146109a4578063f60cc2af14610a84575b600080fd5b34801561010257600080fd5b506102536004803603604081101561011957600080fd5b810190808035906020019064010000000081111561013657600080fd5b82018360208201111561014857600080fd5b8035906020019184600183028401116401000000008311171561016a57600080fd5b91908080601f016020809104026020016040519081016040528093929190818152602001838380828437600081840152601f19601f820116905080830192505050505050509192919290803590602001906401000000008111156101cd57600080fd5b8201836020820111156101df57600080fd5b8035906020019184600183028401116401000000008311171561020157600080fd5b91908080601f016020809104026020016040519081016040528093929190818152602001838380828437600081840152601f19601f820116905080830192505050505050509192919290505050610aaf565b604051808215151515815260200191505060405180910390f35b34801561027957600080fd5b506103ca6004803603604081101561029057600080fd5b81019080803590602001906401000000008111156102ad57600080fd5b8201836020820111156102bf57600080fd5b803590602001918460018302840111640100000000831117156102e157600080fd5b91908080601f016020809104026020016040519081016040528093929190818152602001838380828437600081840152601f19601f8201169050808301925050505050505091929192908035906020019064010000000081111561034457600080fd5b82018360208201111561035657600080fd5b8035906020019184600183028401116401000000008311171561037857600080fd5b91908080601f016020809104026020016040519081016040528093929190818152602001838380828437600081840152601f19601f820116905080830192505050505050509192919290505050610cff565b604051808215151515815260200191505060405180910390f35b3480156103f057600080fd5b506103f9611025565b6040518082815260200191505060405180910390f35b34801561041b57600080fd5b5061056c6004803603604081101561043257600080fd5b810190808035906020019064010000000081111561044f57600080fd5b82018360208201111561046157600080fd5b8035906020019184600183028401116401000000008311171561048357600080fd5b91908080601f016020809104026020016040519081016040528093929190818152602001838380828437600081840152601f19601f820116905080830192505050505050509192919290803590602001906401000000008111156104e657600080fd5b8201836020820111156104f857600080fd5b8035906020019184600183028401116401000000008311171561051a57600080fd5b91908080601f016020809104026020016040519081016040528093929190818152602001838380828437600081840152601f19601f82011690508083019250505050505050919291929050505061102b565b604051808273ffffffffffffffffffffffffffffffffffffffff1673ffffffffffffffffffffffffffffffffffffffff16815260200191505060405180910390f35b3480156105ba57600080fd5b506105fd600480360360208110156105d157600080fd5b81019080803573ffffffffffffffffffffffffffffffffffffffff169060200190929190505050611304565b6040518080602001828103825283818151815260200191508051906020019080838360005b8381101561063d578082015181840152602081019050610622565b50505050905090810190601f16801561066a5780820380516001836020036101000a031916815260200191505b509250505060405180910390f35b34801561068457600080fd5b5061068d6114a6565b6040518082815260200191505060405180910390f35b3480156106af57600080fd5b506106df600480360360208110156106c657600080fd5b81019080803560ff1690602001909291905050506114ac565b005b3480156106ed57600080fd5b506107c76004803603604081101561070457600080fd5b81019080803573ffffffffffffffffffffffffffffffffffffffff1690602001909291908035906020019064010000000081111561074157600080fd5b82018360208201111561075357600080fd5b8035906020019184600183028401116401000000008311171561077557600080fd5b91908080601f016020809104026020016040519081016040528093929190818152602001838380828437600081840152601f19601f82011690508083019250505050505050919291929050505061177a565b604051808215151515815260200191505060405180910390f35b3480156107ed57600080fd5b5061081a6004803603602081101561080457600080fd5b810190808035906020019092919050505061188e565b604051808473ffffffffffffffffffffffffffffffffffffffff1673ffffffffffffffffffffffffffffffffffffffff1681526020018360ff1660ff168152602001828152602001935050505060405180910390f35b34801561087c57600080fd5b506108856118f4565b6040518082815260200191505060405180910390f35b3480156108a757600080fd5b506108b06118fa565b6040518082815260200191505060405180910390f35b6108f5600480360360208110156108dc57600080fd5b81019080803560ff169060200190929190505050611900565b005b34801561090357600080fd5b5061090c611ae7565b6040518082815260200191505060405180910390f35b34801561092e57600080fd5b50610937611aed565b6040518082815260200191505060405180910390f35b34801561095957600080fd5b50610962611af7565b604051808273ffffffffffffffffffffffffffffffffffffffff1673ffffffffffffffffffffffffffffffffffffffff16815260200191505060405180910390f35b3480156109b057600080fd5b50610a6a600480360360208110156109c757600080fd5b81019080803590602001906401000000008111156109e457600080fd5b8201836020820111156109f657600080fd5b80359060200191846001830284011164010000000083111715610a1857600080fd5b91908080601f016020809104026020016040519081016040528093929190818152602001838380828437600081840152601f19601f820116905080830192505050505050509192919290505050611b1c565b604051808215151515815260200191505060405180910390f35b348015610a9057600080fd5b50610a99611ba1565b6040518082815260200191505060405180910390f35b600060606007846040518082805190602001908083835b602083101515610aeb5780518252602082019150602081019050602083039250610ac6565b6001836020036101000a03801982511681845116808217855250505050505090500191505090815260200160405180910390206000016040516020018080602001828103825283818154600181600116156101000203166002900481526020019150805460018160011615610100020316600290048015610bad5780601f10610b8257610100808354040283529160200191610bad565b820191906000526020600020905b815481529060010190602001808311610b9057829003601f168201915b50509250505060405160208183030381529060405290506060836040516020018080602001828103825283818151815260200191508051906020019080838360005b83811015610c0a578082015181840152602081019050610bef565b50505050905090810190601f168015610c375780820380516001836020036101000a031916815260200191505b509250505060405160208183030381529060405290506007856040518082805190602001908083835b602083101515610c855780518252602082019150602081019050602083039250610c60565b6001836020036101000a038019825116818451168082178552505050505050905001915050908152602001604051809103902060030160009054906101000a900460ff168015610ce2575080805190602001208280519060200120145b15610cf257600192505050610cf9565b6000925050505b92915050565b60008060009054906101000a900473ffffffffffffffffffffffffffffffffffffffff1673ffffffffffffffffffffffffffffffffffffffff163373ffffffffffffffffffffffffffffffffffffffff16141515610d60576000905061101f565b816007846040518082805190602001908083835b602083101515610d995780518252602082019150602081019050602083039250610d74565b6001836020036101000a03801982511681845116808217855250505050505090500191505090815260200160405180910390206000019080519060200190610de2929190611ba7565b5060086000600154815260200190815260200160002060000160009054906101000a900473ffffffffffffffffffffffffffffffffffffffff166007846040518082805190602001908083835b602083101515610e545780518252602082019150602081019050602083039250610e2f565b6001836020036101000a038019825116818451168082178552505050505050905001915050908152602001604051809103902060010160006101000a81548173ffffffffffffffffffffffffffffffffffffffff021916908373ffffffffffffffffffffffffffffffffffffffff1602179055506008600060015481526020019081526020016000206001016007846040518082805190602001908083835b602083101515610f185780518252602082019150602081019050602083039250610ef3565b6001836020036101000a03801982511681845116808217855250505050505090500191505090815260200160405180910390206002019080546001816001161561010002031660029004610f6d929190611c27565b5060016007846040518082805190602001908083835b602083101515610fa85780518252602082019150602081019050602083039250610f83565b6001836020036101000a038019825116818451168082178552505050505050905001915050908152602001604051809103902060030160006101000a81548160ff02191690831515021790555060016000815480929190600101919050555060026000815480929190600190039190505550600190505b92915050565b60025481565b600060606007846040518082805190602001908083835b6020831015156110675780518252602082019150602081019050602083039250611042565b6001836020036101000a038019825116818451168082178552505050505050905001915050908152602001604051809103902060000160405160200180806020018281038252838181546001816001161561010002031660029004815260200191508054600181600116156101000203166002900480156111295780601f106110fe57610100808354040283529160200191611129565b820191906000526020600020905b81548152906001019060200180831161110c57829003601f168201915b50509250505060405160208183030381529060405290506060836040516020018080602001828103825283818151815260200191508051906020019080838360005b8381101561118657808201518184015260208101905061116b565b50505050905090810190601f1680156111b35780820380516001836020036101000a031916815260200191505b509250505060405160208183030381529060405290506007856040518082805190602001908083835b60208310151561120157805182526020820191506020810190506020830392506111dc565b6001836020036101000a038019825116818451168082178552505050505050905001915050908152602001604051809103902060030160009054906101000a900460ff16801561125e575080805190602001208280519060200120145b156112fb576007856040518082805190602001908083835b60208310151561129b5780518252602082019150602081019050602083039250611276565b6001836020036101000a038019825116818451168082178552505050505050905001915050908152602001604051809103902060010160009054906101000a900473ffffffffffffffffffffffffffffffffffffffff16925050506112fe565b50505b92915050565b60606000809054906101000a900473ffffffffffffffffffffffffffffffffffffffff1673ffffffffffffffffffffffffffffffffffffffff163373ffffffffffffffffffffffffffffffffffffffff1614151561136157600080fd5b60008090505b60015481101561149f578273ffffffffffffffffffffffffffffffffffffffff166008600083815260200190815260200160002060000160009054906101000a900473ffffffffffffffffffffffffffffffffffffffff1673ffffffffffffffffffffffffffffffffffffffff16141561149257600860008281526020019081526020016000206001018054600181600116156101000203166002900480601f0160208091040260200160405190810160405280929190818152602001828054600181600116156101000203166002900480156114855780601f1061145a57610100808354040283529160200191611485565b820191906000526020600020905b81548152906001019060200180831161146857829003601f168201915b50505050509150506114a1565b8080600101915050611367565b505b919050565b60055481565b60018160ff1614806114c1575060028160ff16145b15156114cc57600080fd5b6000600980549050111561177757600080600060018460ff161415611592576064600a600554028115156114fc57fe5b0490506000809054906101000a900473ffffffffffffffffffffffffffffffffffffffff1673ffffffffffffffffffffffffffffffffffffffff166108fc829081150290604051600060405180830381858888f19350505050158015611566573d6000803e3d6000fd5b50806004600082825403925050819055506006546127106004540281151561158a57fe5b049150611635565b6064600a600654028115156115a357fe5b0490506000809054906101000a900473ffffffffffffffffffffffffffffffffffffffff1673ffffffffffffffffffffffffffffffffffffffff166108fc829081150290604051600060405180830381858888f1935050505015801561160d573d6000803e3d6000fd5b50806004600082825403925050819055506005546127106004540281151561163157fe5b0491505b60008090505b60098054905081101561174a578460ff1660098281548110151561165b57fe5b906000526020600020906002020160000160149054906101000a900460ff1660ff16141561173d576127108360098381548110151561169657fe5b906000526020600020906002020160010154028115156116b257fe5b0493506009818154811015156116c457fe5b906000526020600020906002020160000160009054906101000a900473ffffffffffffffffffffffffffffffffffffffff1673ffffffffffffffffffffffffffffffffffffffff166108fc859081150290604051600060405180830381858888f1935050505015801561173b573d6000803e3d6000fd5b505b808060010191505061163b565b50600060098161175a9190611cae565b506000600481905550600060058190555060006006819055505050505b50565b60008060009054906101000a900473ffffffffffffffffffffffffffffffffffffffff1673ffffffffffffffffffffffffffffffffffffffff163373ffffffffffffffffffffffffffffffffffffffff161415156117db5760009050611888565b8260086000600354815260200190815260200160002060000160006101000a81548173ffffffffffffffffffffffffffffffffffffffff021916908373ffffffffffffffffffffffffffffffffffffffff16021790555081600860006003548152602001908152602001600020600101908051906020019061185e929190611ba7565b50600360008154809291906001019190505550600260008154809291906001019190505550600190505b92915050565b60098181548110151561189d57fe5b90600052602060002090600202016000915090508060000160009054906101000a900473ffffffffffffffffffffffffffffffffffffffff16908060000160149054906101000a900460ff16908060010154905083565b60045481565b60015481565b6000809054906101000a900473ffffffffffffffffffffffffffffffffffffffff1673ffffffffffffffffffffffffffffffffffffffff163373ffffffffffffffffffffffffffffffffffffffff161415151561195c57600080fd5b60018160ff161480611971575060028160ff16145b151561197c57600080fd5b3373ffffffffffffffffffffffffffffffffffffffff163134111515156119a257600080fd5b6119aa611ce0565b33816000019073ffffffffffffffffffffffffffffffffffffffff16908173ffffffffffffffffffffffffffffffffffffffff168152505081816020019060ff16908160ff1681525050348160400181815250503460046000828254019250508190555060018260ff161415611a2f5734600660008282540192505081905550611a40565b346005600082825401925050819055505b6009819080600181540180825580915050906001820390600052602060002090600202016000909192909190915060008201518160000160006101000a81548173ffffffffffffffffffffffffffffffffffffffff021916908373ffffffffffffffffffffffffffffffffffffffff16021790555060208201518160000160146101000a81548160ff021916908360ff160217905550604082015181600101555050505050565b60065481565b6000600254905090565b6000809054906101000a900473ffffffffffffffffffffffffffffffffffffffff1681565b60006007826040518082805190602001908083835b602083101515611b565780518252602082019150602081019050602083039250611b31565b6001836020036101000a038019825116818451168082178552505050505050905001915050908152602001604051809103902060030160009054906101000a900460ff169050919050565b60035481565b828054600181600116156101000203166002900490600052602060002090601f016020900481019282601f10611be857805160ff1916838001178555611c16565b82800160010185558215611c16579182015b82811115611c15578251825591602001919060010190611bfa565b5b509050611c239190611d1b565b5090565b828054600181600116156101000203166002900490600052602060002090601f016020900481019282601f10611c605780548555611c9d565b82800160010185558215611c9d57600052602060002091601f016020900482015b82811115611c9c578254825591600101919060010190611c81565b5b509050611caa9190611d1b565b5090565b815481835581811115611cdb57600202816002028360005260206000209182019101611cda9190611d40565b5b505050565b606060405190810160405280600073ffffffffffffffffffffffffffffffffffffffff168152602001600060ff168152602001600081525090565b611d3d91905b80821115611d39576000816000905550600101611d21565b5090565b90565b611d9f91905b80821115611d9b57600080820160006101000a81549073ffffffffffffffffffffffffffffffffffffffff02191690556000820160146101000a81549060ff0219169055600182016000905550600201611d46565b5090565b9056fea165627a7a72305820dc4ad8b1c347476536d6555be28280de282bcaebd364726ed89a01ef04f050d30029",
  "source": "pragma solidity >= 0.5.0 < 0.6.0;\n\ncontract BettingApp {\n    address payable public contractOwner;\n    uint public unusedAddressId;\n    uint public availableAddresses;\n    uint public newAddressId;\n    uint public totalBetAmount;\n    uint public totalBetUpAmount;\n    uint public totalBetDownAmount;\n\n    constructor() public {\n        contractOwner = msg.sender;\n        availableAddresses = 0;\n        unusedAddressId = 0;\n        newAddressId = 0;\n        totalBetAmount = 0;\n        totalBetUpAmount = 0;\n        totalBetDownAmount = 0;\n    }\n    \n    struct User {\n        string password;\n        address assignedAddress;\n        string addressPassword;\n        bool exist;\n    }\n    mapping (string => User) users;\n    \n    struct AddressesPool {\n        address addressToAsign;\n        string password;\n    }\n    mapping (uint => AddressesPool) addresses;\n    \n    function registerUser(string memory _username, string memory _password) public returns (bool) {\n        if (msg.sender != contractOwner) return false;\n        users[_username].password = _password;\n        users[_username].assignedAddress = addresses[unusedAddressId].addressToAsign;\n        users[_username].addressPassword = addresses[unusedAddressId].password;\n        users[_username].exist = true;\n        unusedAddressId++;\n        availableAddresses--;\n        return true;\n    }\n\n    function checkIfUserExist(string memory _username) public view returns (bool) {\n        return users[_username].exist;\n    }\n\n    function logIn(string memory _username, string memory _password) public view returns (bool) {\n        bytes memory tempPass = abi.encode(users[_username].password);\n        bytes memory _tempPass = abi.encode(_password);\n        if (users[_username].exist && keccak256(tempPass) == keccak256(_tempPass)) {\n            return true;\n        } else {\n            return false;\n        }\n    }\n\n    function getUserLoggedInAddress(string memory _username, string memory _password) public view returns(address) {\n        bytes memory tempPass = abi.encode(users[_username].password);\n        bytes memory _tempPass = abi.encode(_password);\n        if (users[_username].exist && keccak256(tempPass) == keccak256(_tempPass)) {\n            return users[_username].assignedAddress;\n        }\n    }\n    \n    function createNewAddress(address _addressToAsign, string memory _password) public returns (bool){\n        if (msg.sender != contractOwner) return false;\n        addresses[newAddressId].addressToAsign = _addressToAsign;\n        addresses[newAddressId].password = _password;\n        newAddressId++;\n        availableAddresses++;\n        return true;\n    }\n\n    function getAddressPass(address _address) public view returns (string memory password) {\n        require(msg.sender == contractOwner);\n        for (uint i = 0; i < unusedAddressId; i++) {\n            if (addresses[i].addressToAsign == _address) {\n                return addresses[i].password;\n            }\n        }\n    }\n\n    function getAvailableAddresses() public view returns (uint number) {\n        return availableAddresses;\n    }\n    \n    struct Bet {\n        address payable playerAddress;\n        uint8 betType;\n        uint amount;\n    }\n    \n    Bet[] public Bets;\n    \n    function purchaseBet(uint8 _type) public payable {\n        require(msg.sender != contractOwner);\n        require(_type == 1 || _type == 2);\n        require(msg.value <= msg.sender.balance);\n        \n        Bet memory newBet;\n        newBet.playerAddress = msg.sender;\n        newBet.betType = _type;\n        newBet.amount = msg.value;\n        \n        totalBetAmount += msg.value;\n        \n        if (_type == 1)\n            totalBetDownAmount += msg.value;\n        else\n            totalBetUpAmount += msg.value;\n\n        Bets.push(newBet);\n    }\n    \n    function payWinnigBets(uint8 _winningType) public {\n        require(_winningType == 1 || _winningType == 2);\n        if (Bets.length > 0) {\n            uint reward;\n            uint rewardCoefficient;\n            uint ethForHouse;\n            \n            if (_winningType == 1) {\n                ethForHouse = totalBetUpAmount * 10 / 100;\n                contractOwner.transfer(ethForHouse);\n                totalBetAmount -= ethForHouse;\n                rewardCoefficient = totalBetAmount * 10000 / totalBetDownAmount;\n            } else {\n                ethForHouse = totalBetDownAmount * 10 / 100;\n                contractOwner.transfer(ethForHouse);\n                totalBetAmount -= ethForHouse;\n                rewardCoefficient = totalBetAmount * 10000 / totalBetUpAmount;\n            }\n    \n            for (uint i = 0; i < Bets.length; i++) {\n                if(Bets[i].betType == _winningType) {\n                    reward = Bets[i].amount * rewardCoefficient / 10000;\n                    Bets[i].playerAddress.transfer(reward);\n                }\n            }\n            \n            Bets.length = 0;\n            totalBetAmount = 0;\n            totalBetUpAmount = 0;\n            totalBetDownAmount = 0;\n        }\n    }\n}",
  "sourcePath": "/home/velja/Desktop/BC-Academy/DAPPS/betting_app/src/truffle/contracts/BettingApp.sol",
  "compiler": {
    "name": "solc",
    "version": "0.5.0+commit.1d4f565a.Emscripten.clang"
  },
  "schemaVersion": "3.0.1",
  "updatedAt": "2019-02-11T14:05:00.299Z",
  "devdoc": {
    "methods": {}
  },
  "userdoc": {
    "methods": {}
  }
}