{
  "contractName": "BettingApp",
  "abi": [
    {
      "constant": true,
      "inputs": [],
      "name": "availableAddresses",
      "outputs": [
        {
          "name": "",
          "type": "uint256"
        }
      ],
      "payable": false,
      "stateMutability": "view",
      "type": "function",
      "signature": "0x1fda43f5"
    },
    {
      "constant": true,
      "inputs": [],
      "name": "totalBetUpAmount",
      "outputs": [
        {
          "name": "",
          "type": "uint256"
        }
      ],
      "payable": false,
      "stateMutability": "view",
      "type": "function",
      "signature": "0x4585acd8"
    },
    {
      "constant": true,
      "inputs": [
        {
          "name": "",
          "type": "uint256"
        }
      ],
      "name": "Bets",
      "outputs": [
        {
          "name": "playerAddress",
          "type": "address"
        },
        {
          "name": "betType",
          "type": "uint8"
        },
        {
          "name": "amount",
          "type": "uint256"
        }
      ],
      "payable": false,
      "stateMutability": "view",
      "type": "function",
      "signature": "0x532a5fe8"
    },
    {
      "constant": true,
      "inputs": [],
      "name": "totalBetAmount",
      "outputs": [
        {
          "name": "",
          "type": "uint256"
        }
      ],
      "payable": false,
      "stateMutability": "view",
      "type": "function",
      "signature": "0x613f4594"
    },
    {
      "constant": true,
      "inputs": [],
      "name": "unusedAddressId",
      "outputs": [
        {
          "name": "",
          "type": "uint256"
        }
      ],
      "payable": false,
      "stateMutability": "view",
      "type": "function",
      "signature": "0x7b4c516d"
    },
    {
      "constant": true,
      "inputs": [],
      "name": "totalBetDownAmount",
      "outputs": [
        {
          "name": "",
          "type": "uint256"
        }
      ],
      "payable": false,
      "stateMutability": "view",
      "type": "function",
      "signature": "0xa3fb37d7"
    },
    {
      "constant": true,
      "inputs": [],
      "name": "contractOwner",
      "outputs": [
        {
          "name": "",
          "type": "address"
        }
      ],
      "payable": false,
      "stateMutability": "view",
      "type": "function",
      "signature": "0xce606ee0"
    },
    {
      "constant": true,
      "inputs": [],
      "name": "newAddressId",
      "outputs": [
        {
          "name": "",
          "type": "uint256"
        }
      ],
      "payable": false,
      "stateMutability": "view",
      "type": "function",
      "signature": "0xf60cc2af"
    },
    {
      "inputs": [],
      "payable": false,
      "stateMutability": "nonpayable",
      "type": "constructor",
      "signature": "constructor"
    },
    {
      "constant": false,
      "inputs": [],
      "name": "destructor",
      "outputs": [],
      "payable": false,
      "stateMutability": "nonpayable",
      "type": "function",
      "signature": "0x4476d23b"
    },
    {
      "constant": false,
      "inputs": [
        {
          "name": "_username",
          "type": "string"
        },
        {
          "name": "_password",
          "type": "string"
        }
      ],
      "name": "registerUser",
      "outputs": [
        {
          "name": "",
          "type": "bool"
        }
      ],
      "payable": false,
      "stateMutability": "nonpayable",
      "type": "function",
      "signature": "0x1d2e4afd"
    },
    {
      "constant": true,
      "inputs": [
        {
          "name": "_username",
          "type": "string"
        }
      ],
      "name": "checkIfUserExist",
      "outputs": [
        {
          "name": "",
          "type": "bool"
        }
      ],
      "payable": false,
      "stateMutability": "view",
      "type": "function",
      "signature": "0xd98531f2"
    },
    {
      "constant": true,
      "inputs": [
        {
          "name": "_username",
          "type": "string"
        },
        {
          "name": "_password",
          "type": "string"
        }
      ],
      "name": "logIn",
      "outputs": [
        {
          "name": "",
          "type": "bool"
        }
      ],
      "payable": false,
      "stateMutability": "view",
      "type": "function",
      "signature": "0x1cbfc466"
    },
    {
      "constant": true,
      "inputs": [
        {
          "name": "_username",
          "type": "string"
        },
        {
          "name": "_password",
          "type": "string"
        }
      ],
      "name": "getUserLoggedInAddress",
      "outputs": [
        {
          "name": "",
          "type": "address"
        }
      ],
      "payable": false,
      "stateMutability": "view",
      "type": "function",
      "signature": "0x364b59d8"
    },
    {
      "constant": false,
      "inputs": [
        {
          "name": "_addressToAsign",
          "type": "address"
        },
        {
          "name": "_password",
          "type": "string"
        }
      ],
      "name": "createNewAddress",
      "outputs": [
        {
          "name": "",
          "type": "bool"
        }
      ],
      "payable": false,
      "stateMutability": "nonpayable",
      "type": "function",
      "signature": "0x4f4c66f0"
    },
    {
      "constant": true,
      "inputs": [
        {
          "name": "_address",
          "type": "address"
        }
      ],
      "name": "getAddressPass",
      "outputs": [
        {
          "name": "password",
          "type": "string"
        }
      ],
      "payable": false,
      "stateMutability": "view",
      "type": "function",
      "signature": "0x44563d60"
    },
    {
      "constant": true,
      "inputs": [],
      "name": "getAvailableAddresses",
      "outputs": [
        {
          "name": "number",
          "type": "uint256"
        }
      ],
      "payable": false,
      "stateMutability": "view",
      "type": "function",
      "signature": "0xc64c8950"
    },
    {
      "constant": false,
      "inputs": [
        {
          "name": "_type",
          "type": "uint8"
        }
      ],
      "name": "purchaseBet",
      "outputs": [],
      "payable": true,
      "stateMutability": "payable",
      "type": "function",
      "signature": "0x8fcfab25"
    },
    {
      "constant": false,
      "inputs": [
        {
          "name": "_winningType",
          "type": "uint8"
        }
      ],
      "name": "payWinnigBets",
      "outputs": [],
      "payable": false,
      "stateMutability": "nonpayable",
      "type": "function",
      "signature": "0x46da4ceb"
    }
  ],
  "bytecode": "0x608060405234801561001057600080fd5b50336000806101000a81548173ffffffffffffffffffffffffffffffffffffffff021916908373ffffffffffffffffffffffffffffffffffffffff160217905550600060028190555060006001819055506000600381905550600060048190555060006005819055506000600681905550612090806100906000396000f3fe6080604052600436106100fc576000357c0100000000000000000000000000000000000000000000000000000000900463ffffffff1680631cbfc466146101015780631d2e4afd146102785780631fda43f5146103ef578063364b59d81461041a57806344563d60146105b95780634476d23b146106835780634585acd81461069a57806346da4ceb146106c55780634f4c66f014610703578063532a5fe814610803578063613f4594146108925780637b4c516d146108bd5780638fcfab25146108e8578063a3fb37d714610919578063c64c895014610944578063ce606ee01461096f578063d98531f2146109c6578063f60cc2af14610aa6575b600080fd5b34801561010d57600080fd5b5061025e6004803603604081101561012457600080fd5b810190808035906020019064010000000081111561014157600080fd5b82018360208201111561015357600080fd5b8035906020019184600183028401116401000000008311171561017557600080fd5b91908080601f016020809104026020016040519081016040528093929190818152602001838380828437600081840152601f19601f820116905080830192505050505050509192919290803590602001906401000000008111156101d857600080fd5b8201836020820111156101ea57600080fd5b8035906020019184600183028401116401000000008311171561020c57600080fd5b91908080601f016020809104026020016040519081016040528093929190818152602001838380828437600081840152601f19601f820116905080830192505050505050509192919290505050610ad1565b604051808215151515815260200191505060405180910390f35b34801561028457600080fd5b506103d56004803603604081101561029b57600080fd5b81019080803590602001906401000000008111156102b857600080fd5b8201836020820111156102ca57600080fd5b803590602001918460018302840111640100000000831117156102ec57600080fd5b91908080601f016020809104026020016040519081016040528093929190818152602001838380828437600081840152601f19601f8201169050808301925050505050505091929192908035906020019064010000000081111561034f57600080fd5b82018360208201111561036157600080fd5b8035906020019184600183028401116401000000008311171561038357600080fd5b91908080601f016020809104026020016040519081016040528093929190818152602001838380828437600081840152601f19601f820116905080830192505050505050509192919290505050610d21565b604051808215151515815260200191505060405180910390f35b3480156103fb57600080fd5b50610404611047565b6040518082815260200191505060405180910390f35b34801561042657600080fd5b506105776004803603604081101561043d57600080fd5b810190808035906020019064010000000081111561045a57600080fd5b82018360208201111561046c57600080fd5b8035906020019184600183028401116401000000008311171561048e57600080fd5b91908080601f016020809104026020016040519081016040528093929190818152602001838380828437600081840152601f19601f820116905080830192505050505050509192919290803590602001906401000000008111156104f157600080fd5b82018360208201111561050357600080fd5b8035906020019184600183028401116401000000008311171561052557600080fd5b91908080601f016020809104026020016040519081016040528093929190818152602001838380828437600081840152601f19601f82011690508083019250505050505050919291929050505061104d565b604051808273ffffffffffffffffffffffffffffffffffffffff1673ffffffffffffffffffffffffffffffffffffffff16815260200191505060405180910390f35b3480156105c557600080fd5b50610608600480360360208110156105dc57600080fd5b81019080803573ffffffffffffffffffffffffffffffffffffffff169060200190929190505050611326565b6040518080602001828103825283818151815260200191508051906020019080838360005b8381101561064857808201518184015260208101905061062d565b50505050905090810190601f1680156106755780820380516001836020036101000a031916815260200191505b509250505060405180910390f35b34801561068f57600080fd5b506106986114c8565b005b3480156106a657600080fd5b506106af611559565b6040518082815260200191505060405180910390f35b3480156106d157600080fd5b50610701600480360360208110156106e857600080fd5b81019080803560ff16906020019092919050505061155f565b005b34801561070f57600080fd5b506107e96004803603604081101561072657600080fd5b81019080803573ffffffffffffffffffffffffffffffffffffffff1690602001909291908035906020019064010000000081111561076357600080fd5b82018360208201111561077557600080fd5b8035906020019184600183028401116401000000008311171561079757600080fd5b91908080601f016020809104026020016040519081016040528093929190818152602001838380828437600081840152601f19601f820116905080830192505050505050509192919290505050611a62565b604051808215151515815260200191505060405180910390f35b34801561080f57600080fd5b5061083c6004803603602081101561082657600080fd5b8101908080359060200190929190505050611b76565b604051808473ffffffffffffffffffffffffffffffffffffffff1673ffffffffffffffffffffffffffffffffffffffff1681526020018360ff1660ff168152602001828152602001935050505060405180910390f35b34801561089e57600080fd5b506108a7611bdc565b6040518082815260200191505060405180910390f35b3480156108c957600080fd5b506108d2611be2565b6040518082815260200191505060405180910390f35b610917600480360360208110156108fe57600080fd5b81019080803560ff169060200190929190505050611be8565b005b34801561092557600080fd5b5061092e611da9565b6040518082815260200191505060405180910390f35b34801561095057600080fd5b50610959611daf565b6040518082815260200191505060405180910390f35b34801561097b57600080fd5b50610984611db9565b604051808273ffffffffffffffffffffffffffffffffffffffff1673ffffffffffffffffffffffffffffffffffffffff16815260200191505060405180910390f35b3480156109d257600080fd5b50610a8c600480360360208110156109e957600080fd5b8101908080359060200190640100000000811115610a0657600080fd5b820183602082011115610a1857600080fd5b80359060200191846001830284011164010000000083111715610a3a57600080fd5b91908080601f016020809104026020016040519081016040528093929190818152602001838380828437600081840152601f19601f820116905080830192505050505050509192919290505050611dde565b604051808215151515815260200191505060405180910390f35b348015610ab257600080fd5b50610abb611e63565b6040518082815260200191505060405180910390f35b600060606007846040518082805190602001908083835b602083101515610b0d5780518252602082019150602081019050602083039250610ae8565b6001836020036101000a03801982511681845116808217855250505050505090500191505090815260200160405180910390206000016040516020018080602001828103825283818154600181600116156101000203166002900481526020019150805460018160011615610100020316600290048015610bcf5780601f10610ba457610100808354040283529160200191610bcf565b820191906000526020600020905b815481529060010190602001808311610bb257829003601f168201915b50509250505060405160208183030381529060405290506060836040516020018080602001828103825283818151815260200191508051906020019080838360005b83811015610c2c578082015181840152602081019050610c11565b50505050905090810190601f168015610c595780820380516001836020036101000a031916815260200191505b509250505060405160208183030381529060405290506007856040518082805190602001908083835b602083101515610ca75780518252602082019150602081019050602083039250610c82565b6001836020036101000a038019825116818451168082178552505050505050905001915050908152602001604051809103902060030160009054906101000a900460ff168015610d04575080805190602001208280519060200120145b15610d1457600192505050610d1b565b6000925050505b92915050565b60008060009054906101000a900473ffffffffffffffffffffffffffffffffffffffff1673ffffffffffffffffffffffffffffffffffffffff163373ffffffffffffffffffffffffffffffffffffffff16141515610d825760009050611041565b816007846040518082805190602001908083835b602083101515610dbb5780518252602082019150602081019050602083039250610d96565b6001836020036101000a03801982511681845116808217855250505050505090500191505090815260200160405180910390206000019080519060200190610e04929190611e69565b5060086000600154815260200190815260200160002060000160009054906101000a900473ffffffffffffffffffffffffffffffffffffffff166007846040518082805190602001908083835b602083101515610e765780518252602082019150602081019050602083039250610e51565b6001836020036101000a038019825116818451168082178552505050505050905001915050908152602001604051809103902060010160006101000a81548173ffffffffffffffffffffffffffffffffffffffff021916908373ffffffffffffffffffffffffffffffffffffffff1602179055506008600060015481526020019081526020016000206001016007846040518082805190602001908083835b602083101515610f3a5780518252602082019150602081019050602083039250610f15565b6001836020036101000a03801982511681845116808217855250505050505090500191505090815260200160405180910390206002019080546001816001161561010002031660029004610f8f929190611ee9565b5060016007846040518082805190602001908083835b602083101515610fca5780518252602082019150602081019050602083039250610fa5565b6001836020036101000a038019825116818451168082178552505050505050905001915050908152602001604051809103902060030160006101000a81548160ff02191690831515021790555060016000815480929190600101919050555060026000815480929190600190039190505550600190505b92915050565b60025481565b600060606007846040518082805190602001908083835b6020831015156110895780518252602082019150602081019050602083039250611064565b6001836020036101000a0380198251168184511680821785525050505050509050019150509081526020016040518091039020600001604051602001808060200182810382528381815460018160011615610100020316600290048152602001915080546001816001161561010002031660029004801561114b5780601f106111205761010080835404028352916020019161114b565b820191906000526020600020905b81548152906001019060200180831161112e57829003601f168201915b50509250505060405160208183030381529060405290506060836040516020018080602001828103825283818151815260200191508051906020019080838360005b838110156111a857808201518184015260208101905061118d565b50505050905090810190601f1680156111d55780820380516001836020036101000a031916815260200191505b509250505060405160208183030381529060405290506007856040518082805190602001908083835b60208310151561122357805182526020820191506020810190506020830392506111fe565b6001836020036101000a038019825116818451168082178552505050505050905001915050908152602001604051809103902060030160009054906101000a900460ff168015611280575080805190602001208280519060200120145b1561131d576007856040518082805190602001908083835b6020831015156112bd5780518252602082019150602081019050602083039250611298565b6001836020036101000a038019825116818451168082178552505050505050905001915050908152602001604051809103902060010160009054906101000a900473ffffffffffffffffffffffffffffffffffffffff1692505050611320565b50505b92915050565b60606000809054906101000a900473ffffffffffffffffffffffffffffffffffffffff1673ffffffffffffffffffffffffffffffffffffffff163373ffffffffffffffffffffffffffffffffffffffff1614151561138357600080fd5b60008090505b6001548110156114c1578273ffffffffffffffffffffffffffffffffffffffff166008600083815260200190815260200160002060000160009054906101000a900473ffffffffffffffffffffffffffffffffffffffff1673ffffffffffffffffffffffffffffffffffffffff1614156114b457600860008281526020019081526020016000206001018054600181600116156101000203166002900480601f0160208091040260200160405190810160405280929190818152602001828054600181600116156101000203166002900480156114a75780601f1061147c576101008083540402835291602001916114a7565b820191906000526020600020905b81548152906001019060200180831161148a57829003601f168201915b50505050509150506114c3565b8080600101915050611389565b505b919050565b3373ffffffffffffffffffffffffffffffffffffffff166000809054906101000a900473ffffffffffffffffffffffffffffffffffffffff1673ffffffffffffffffffffffffffffffffffffffff161415611557576000809054906101000a900473ffffffffffffffffffffffffffffffffffffffff1673ffffffffffffffffffffffffffffffffffffffff16ff5b565b60055481565b60008160ff161480611574575060018160ff16145b80611582575060028160ff16145b151561158d57600080fd5b600060098054905011156119bf576000806000806000905060008560ff16141561167e5760008090505b600980549050811015611678576009818154811015156115d357fe5b906000526020600020906002020160000160009054906101000a900473ffffffffffffffffffffffffffffffffffffffff1673ffffffffffffffffffffffffffffffffffffffff166108fc60098381548110151561162d57fe5b9060005260206000209060020201600101549081150290604051600060405180830381858888f1935050505015801561166a573d6000803e3d6000fd5b5080806001019150506115b7565b50611992565b60018560ff1614801561169357506000600654115b1561174357600190506064600a600554028115156116ad57fe5b0491506000809054906101000a900473ffffffffffffffffffffffffffffffffffffffff1673ffffffffffffffffffffffffffffffffffffffff166108fc839081150290604051600060405180830381858888f19350505050158015611717573d6000803e3d6000fd5b50816004600082825403925050819055506006546127106004540281151561173b57fe5b049250611805565b60028560ff1614801561175857506000600554115b1561180457600190506064600a6006540281151561177257fe5b0491506000809054906101000a900473ffffffffffffffffffffffffffffffffffffffff1673ffffffffffffffffffffffffffffffffffffffff166108fc839081150290604051600060405180830381858888f193505050501580156117dc573d6000803e3d6000fd5b50816004600082825403925050819055506005546127106004540281151561180057fe5b0492505b5b80156119265760008090505b600980549050811015611920578560ff1660098281548110151561183157fe5b906000526020600020906002020160000160149054906101000a900460ff1660ff161415611913576127108460098381548110151561186c57fe5b9060005260206000209060020201600101540281151561188857fe5b04945060098181548110151561189a57fe5b906000526020600020906002020160000160009054906101000a900473ffffffffffffffffffffffffffffffffffffffff1673ffffffffffffffffffffffffffffffffffffffff166108fc869081150290604051600060405180830381858888f19350505050158015611911573d6000803e3d6000fd5b505b8080600101915050611811565b50611991565b6000809054906101000a900473ffffffffffffffffffffffffffffffffffffffff1673ffffffffffffffffffffffffffffffffffffffff166108fc6004549081150290604051600060405180830381858888f1935050505015801561198f573d6000803e3d6000fd5b505b5b60006009816119a19190611f70565b50600060048190555060006005819055506000600681905550505050505b60003073ffffffffffffffffffffffffffffffffffffffff16311115611a5f576000809054906101000a900473ffffffffffffffffffffffffffffffffffffffff1673ffffffffffffffffffffffffffffffffffffffff166108fc3073ffffffffffffffffffffffffffffffffffffffff16319081150290604051600060405180830381858888f19350505050158015611a5d573d6000803e3d6000fd5b505b50565b60008060009054906101000a900473ffffffffffffffffffffffffffffffffffffffff1673ffffffffffffffffffffffffffffffffffffffff163373ffffffffffffffffffffffffffffffffffffffff16141515611ac35760009050611b70565b8260086000600354815260200190815260200160002060000160006101000a81548173ffffffffffffffffffffffffffffffffffffffff021916908373ffffffffffffffffffffffffffffffffffffffff160217905550816008600060035481526020019081526020016000206001019080519060200190611b46929190611e69565b50600360008154809291906001019190505550600260008154809291906001019190505550600190505b92915050565b600981815481101515611b8557fe5b90600052602060002090600202016000915090508060000160009054906101000a900473ffffffffffffffffffffffffffffffffffffffff16908060000160149054906101000a900460ff16908060010154905083565b60045481565b60015481565b6000809054906101000a900473ffffffffffffffffffffffffffffffffffffffff1673ffffffffffffffffffffffffffffffffffffffff163373ffffffffffffffffffffffffffffffffffffffff1614151515611c4457600080fd5b60018160ff161480611c59575060028160ff16145b1515611c6457600080fd5b611c6c611fa2565b33816000019073ffffffffffffffffffffffffffffffffffffffff16908173ffffffffffffffffffffffffffffffffffffffff168152505081816020019060ff16908160ff1681525050348160400181815250503460046000828254019250508190555060018260ff161415611cf15734600660008282540192505081905550611d02565b346005600082825401925050819055505b6009819080600181540180825580915050906001820390600052602060002090600202016000909192909190915060008201518160000160006101000a81548173ffffffffffffffffffffffffffffffffffffffff021916908373ffffffffffffffffffffffffffffffffffffffff16021790555060208201518160000160146101000a81548160ff021916908360ff160217905550604082015181600101555050505050565b60065481565b6000600254905090565b6000809054906101000a900473ffffffffffffffffffffffffffffffffffffffff1681565b60006007826040518082805190602001908083835b602083101515611e185780518252602082019150602081019050602083039250611df3565b6001836020036101000a038019825116818451168082178552505050505050905001915050908152602001604051809103902060030160009054906101000a900460ff169050919050565b60035481565b828054600181600116156101000203166002900490600052602060002090601f016020900481019282601f10611eaa57805160ff1916838001178555611ed8565b82800160010185558215611ed8579182015b82811115611ed7578251825591602001919060010190611ebc565b5b509050611ee59190611fdd565b5090565b828054600181600116156101000203166002900490600052602060002090601f016020900481019282601f10611f225780548555611f5f565b82800160010185558215611f5f57600052602060002091601f016020900482015b82811115611f5e578254825591600101919060010190611f43565b5b509050611f6c9190611fdd565b5090565b815481835581811115611f9d57600202816002028360005260206000209182019101611f9c9190612002565b5b505050565b606060405190810160405280600073ffffffffffffffffffffffffffffffffffffffff168152602001600060ff168152602001600081525090565b611fff91905b80821115611ffb576000816000905550600101611fe3565b5090565b90565b61206191905b8082111561205d57600080820160006101000a81549073ffffffffffffffffffffffffffffffffffffffff02191690556000820160146101000a81549060ff0219169055600182016000905550600201612008565b5090565b9056fea165627a7a72305820040011911c208cd3e78a5eaac2e43439bb62294a51ce1667c378034d8a44b8b60029",
  "source": "pragma solidity >= 0.5.0 < 0.6.0;\n\ncontract BettingApp {\n    address payable public contractOwner;\n    uint public unusedAddressId;\n    uint public availableAddresses;\n    uint public newAddressId;\n    uint public totalBetAmount;\n    uint public totalBetUpAmount;\n    uint public totalBetDownAmount;\n\n    constructor() public {\n        contractOwner = msg.sender;\n        availableAddresses = 0;\n        unusedAddressId = 0;\n        newAddressId = 0;\n        totalBetAmount = 0;\n        totalBetUpAmount = 0;\n        totalBetDownAmount = 0;\n    }\n    \n    function destructor() public {\n        if(contractOwner == msg.sender) {\n            selfdestruct(contractOwner);\n        }\n    }\n    \n    struct User {\n        string password;\n        address assignedAddress;\n        string addressPassword;\n        bool exist;\n    }\n    mapping (string => User) users;\n    \n    struct AddressesPool {\n        address addressToAsign;\n        string password;\n    }\n    mapping (uint => AddressesPool) addresses;\n    \n    function registerUser(string memory _username, string memory _password) public returns (bool) {\n        if (msg.sender != contractOwner) return false;\n        users[_username].password = _password;\n        users[_username].assignedAddress = addresses[unusedAddressId].addressToAsign;\n        users[_username].addressPassword = addresses[unusedAddressId].password;\n        users[_username].exist = true;\n        unusedAddressId++;\n        availableAddresses--;\n        return true;\n    }\n\n    function checkIfUserExist(string memory _username) public view returns (bool) {\n        return users[_username].exist;\n    }\n\n    function logIn(string memory _username, string memory _password) public view returns (bool) {\n        bytes memory tempPass = abi.encode(users[_username].password);\n        bytes memory _tempPass = abi.encode(_password);\n        if (users[_username].exist && keccak256(tempPass) == keccak256(_tempPass)) {\n            return true;\n        } else {\n            return false;\n        }\n    }\n\n    function getUserLoggedInAddress(string memory _username, string memory _password) public view returns(address) {\n        bytes memory tempPass = abi.encode(users[_username].password);\n        bytes memory _tempPass = abi.encode(_password);\n        if (users[_username].exist && keccak256(tempPass) == keccak256(_tempPass)) {\n            return users[_username].assignedAddress;\n        }\n    }\n    \n    function createNewAddress(address _addressToAsign, string memory _password) public returns (bool){\n        if (msg.sender != contractOwner) return false;\n        addresses[newAddressId].addressToAsign = _addressToAsign;\n        addresses[newAddressId].password = _password;\n        newAddressId++;\n        availableAddresses++;\n        return true;\n    }\n\n    function getAddressPass(address _address) public view returns (string memory password) {\n        require(msg.sender == contractOwner);\n        for (uint i = 0; i < unusedAddressId; i++) {\n            if (addresses[i].addressToAsign == _address) {\n                return addresses[i].password;\n            }\n        }\n    }\n\n    function getAvailableAddresses() public view returns (uint number) {\n        return availableAddresses;\n    }\n    \n    struct Bet {\n        address payable playerAddress;\n        uint8 betType;\n        uint amount;\n    }\n    \n    Bet[] public Bets;\n    \n    function purchaseBet(uint8 _type) public payable {\n        require(msg.sender != contractOwner);\n        require(_type == 1 || _type == 2);\n        \n        Bet memory newBet;\n        newBet.playerAddress = msg.sender;\n        newBet.betType = _type;\n        newBet.amount = msg.value;\n        \n        totalBetAmount += msg.value;\n        \n        if (_type == 1)\n            totalBetDownAmount += msg.value;\n        else\n            totalBetUpAmount += msg.value;\n\n        Bets.push(newBet);\n    }\n    \n    function payWinnigBets(uint8 _winningType) public {\n        require(_winningType == 0 || _winningType == 1 || _winningType == 2);\n        if (Bets.length > 0) {\n            uint reward;\n            uint rewardCoefficient;\n            uint ethForHouse;\n            bool winningBets = false;\n\n            // if there was no change in price, return the funds to all users\n            if (_winningType == 0) {\n                for (uint i = 0; i < Bets.length; i++) {\n                    Bets[i].playerAddress.transfer(Bets[i].amount);\n                }\n            } else {\n                // check if there was winning bets, get 10% for the house and calculate reward coefficient\n                if (_winningType == 1 && totalBetDownAmount > 0) {\n                    winningBets = true;\n                    ethForHouse = totalBetUpAmount * 10 / 100;\n                    contractOwner.transfer(ethForHouse);\n                    totalBetAmount -= ethForHouse;\n                    rewardCoefficient = totalBetAmount * 10000 / totalBetDownAmount;\n                } else if (_winningType == 2 && totalBetUpAmount > 0) {\n                    winningBets = true;\n                    ethForHouse = totalBetDownAmount * 10 / 100;\n                    contractOwner.transfer(ethForHouse);\n                    totalBetAmount -= ethForHouse;\n                    rewardCoefficient = totalBetAmount * 10000 / totalBetUpAmount;\n                }\n                \n                // transfer funds to users that won if there were any\n                if (winningBets) {\n                    for (uint i = 0; i < Bets.length; i++) {\n                        if(Bets[i].betType == _winningType) {\n                            reward = Bets[i].amount * rewardCoefficient / 10000;\n                            Bets[i].playerAddress.transfer(reward);\n                        }\n                    }\n                } else {\n                    contractOwner.transfer(totalBetAmount);\n                }\n            }\n            \n            Bets.length = 0;\n            totalBetAmount = 0;\n            totalBetUpAmount = 0;\n            totalBetDownAmount = 0;\n        }\n        \n        // send remaining eth (if any) from contract to contractOwner\n        if (address(this).balance > 0) {\n            contractOwner.transfer(address(this).balance);\n        }\n    }\n}",
  "sourcePath": "/home/velja/Desktop/BC-Academy/DAPPS/official/src/truffle/contracts/BettingApp.sol",
  "compiler": {
    "name": "solc",
    "version": "0.5.0+commit.1d4f565a.Emscripten.clang"
  },
  "schemaVersion": "3.0.1",
  "updatedAt": "2019-02-17T22:01:51.668Z",
  "devdoc": {
    "methods": {}
  },
  "userdoc": {
    "methods": {}
  }
}