{
  "contractName": "BettingApp",
  "abi": [
    {
      "constant": true,
      "inputs": [],
      "name": "availableAddresses",
      "outputs": [
        {
          "name": "",
          "type": "uint256"
        }
      ],
      "payable": false,
      "stateMutability": "view",
      "type": "function",
      "signature": "0x1fda43f5"
    },
    {
      "constant": true,
      "inputs": [],
      "name": "totalBetUpAmount",
      "outputs": [
        {
          "name": "",
          "type": "uint256"
        }
      ],
      "payable": false,
      "stateMutability": "view",
      "type": "function",
      "signature": "0x4585acd8"
    },
    {
      "constant": true,
      "inputs": [
        {
          "name": "",
          "type": "uint256"
        }
      ],
      "name": "Bets",
      "outputs": [
        {
          "name": "playerAddress",
          "type": "address"
        },
        {
          "name": "betType",
          "type": "uint8"
        },
        {
          "name": "amount",
          "type": "uint256"
        }
      ],
      "payable": false,
      "stateMutability": "view",
      "type": "function",
      "signature": "0x532a5fe8"
    },
    {
      "constant": true,
      "inputs": [],
      "name": "totalBetAmount",
      "outputs": [
        {
          "name": "",
          "type": "uint256"
        }
      ],
      "payable": false,
      "stateMutability": "view",
      "type": "function",
      "signature": "0x613f4594"
    },
    {
      "constant": true,
      "inputs": [],
      "name": "unusedAddressId",
      "outputs": [
        {
          "name": "",
          "type": "uint256"
        }
      ],
      "payable": false,
      "stateMutability": "view",
      "type": "function",
      "signature": "0x7b4c516d"
    },
    {
      "constant": true,
      "inputs": [],
      "name": "totalBetDownAmount",
      "outputs": [
        {
          "name": "",
          "type": "uint256"
        }
      ],
      "payable": false,
      "stateMutability": "view",
      "type": "function",
      "signature": "0xa3fb37d7"
    },
    {
      "constant": true,
      "inputs": [],
      "name": "contractOwner",
      "outputs": [
        {
          "name": "",
          "type": "address"
        }
      ],
      "payable": false,
      "stateMutability": "view",
      "type": "function",
      "signature": "0xce606ee0"
    },
    {
      "constant": true,
      "inputs": [],
      "name": "newAddressId",
      "outputs": [
        {
          "name": "",
          "type": "uint256"
        }
      ],
      "payable": false,
      "stateMutability": "view",
      "type": "function",
      "signature": "0xf60cc2af"
    },
    {
      "inputs": [],
      "payable": false,
      "stateMutability": "nonpayable",
      "type": "constructor",
      "signature": "constructor"
    },
    {
      "constant": false,
      "inputs": [],
      "name": "destructor",
      "outputs": [],
      "payable": false,
      "stateMutability": "nonpayable",
      "type": "function",
      "signature": "0x4476d23b"
    },
    {
      "constant": false,
      "inputs": [
        {
          "name": "_username",
          "type": "string"
        },
        {
          "name": "_password",
          "type": "string"
        }
      ],
      "name": "registerUser",
      "outputs": [
        {
          "name": "",
          "type": "bool"
        }
      ],
      "payable": false,
      "stateMutability": "nonpayable",
      "type": "function",
      "signature": "0x1d2e4afd"
    },
    {
      "constant": true,
      "inputs": [
        {
          "name": "_username",
          "type": "string"
        }
      ],
      "name": "checkIfUserExist",
      "outputs": [
        {
          "name": "",
          "type": "bool"
        }
      ],
      "payable": false,
      "stateMutability": "view",
      "type": "function",
      "signature": "0xd98531f2"
    },
    {
      "constant": true,
      "inputs": [
        {
          "name": "_username",
          "type": "string"
        },
        {
          "name": "_password",
          "type": "string"
        }
      ],
      "name": "logIn",
      "outputs": [
        {
          "name": "",
          "type": "bool"
        }
      ],
      "payable": false,
      "stateMutability": "view",
      "type": "function",
      "signature": "0x1cbfc466"
    },
    {
      "constant": true,
      "inputs": [
        {
          "name": "_username",
          "type": "string"
        },
        {
          "name": "_password",
          "type": "string"
        }
      ],
      "name": "getUserLoggedInAddress",
      "outputs": [
        {
          "name": "",
          "type": "address"
        }
      ],
      "payable": false,
      "stateMutability": "view",
      "type": "function",
      "signature": "0x364b59d8"
    },
    {
      "constant": false,
      "inputs": [
        {
          "name": "_addressToAsign",
          "type": "address"
        },
        {
          "name": "_password",
          "type": "string"
        }
      ],
      "name": "createNewAddress",
      "outputs": [
        {
          "name": "",
          "type": "bool"
        }
      ],
      "payable": false,
      "stateMutability": "nonpayable",
      "type": "function",
      "signature": "0x4f4c66f0"
    },
    {
      "constant": true,
      "inputs": [
        {
          "name": "_address",
          "type": "address"
        }
      ],
      "name": "getAddressPass",
      "outputs": [
        {
          "name": "password",
          "type": "string"
        }
      ],
      "payable": false,
      "stateMutability": "view",
      "type": "function",
      "signature": "0x44563d60"
    },
    {
      "constant": true,
      "inputs": [],
      "name": "getAvailableAddresses",
      "outputs": [
        {
          "name": "number",
          "type": "uint256"
        }
      ],
      "payable": false,
      "stateMutability": "view",
      "type": "function",
      "signature": "0xc64c8950"
    },
    {
      "constant": false,
      "inputs": [
        {
          "name": "_type",
          "type": "uint8"
        }
      ],
      "name": "purchaseBet",
      "outputs": [],
      "payable": true,
      "stateMutability": "payable",
      "type": "function",
      "signature": "0x8fcfab25"
    },
    {
      "constant": false,
      "inputs": [
        {
          "name": "_winningType",
          "type": "uint8"
        }
      ],
      "name": "payWinnigBets",
      "outputs": [],
      "payable": false,
      "stateMutability": "nonpayable",
      "type": "function",
      "signature": "0x46da4ceb"
    },
    {
      "constant": true,
      "inputs": [],
      "name": "BetStatistics",
      "outputs": [
        {
          "name": "_totalBetAmount",
          "type": "uint256"
        },
        {
          "name": "_totalBetDownAmount",
          "type": "uint256"
        },
        {
          "name": "_totalBetUpAmount",
          "type": "uint256"
        }
      ],
      "payable": false,
      "stateMutability": "view",
      "type": "function",
      "signature": "0x086ead53"
    }
  ],
  "bytecode": "0x608060405234801561001057600080fd5b50336000806101000a81548173ffffffffffffffffffffffffffffffffffffffff021916908373ffffffffffffffffffffffffffffffffffffffff1602179055506000600281905550600060018190555060006003819055506000600481905550600060058190555060006006819055506120ed806100906000396000f3fe608060405260043610610107576000357c0100000000000000000000000000000000000000000000000000000000900463ffffffff168063086ead531461010c5780631cbfc466146101455780631d2e4afd146102bc5780631fda43f514610433578063364b59d81461045e57806344563d60146105fd5780634476d23b146106c75780634585acd8146106de57806346da4ceb146107095780634f4c66f014610747578063532a5fe814610847578063613f4594146108d65780637b4c516d146109015780638fcfab251461092c578063a3fb37d71461095d578063c64c895014610988578063ce606ee0146109b3578063d98531f214610a0a578063f60cc2af14610aea575b600080fd5b34801561011857600080fd5b50610121610b15565b60405180848152602001838152602001828152602001935050505060405180910390f35b34801561015157600080fd5b506102a26004803603604081101561016857600080fd5b810190808035906020019064010000000081111561018557600080fd5b82018360208201111561019757600080fd5b803590602001918460018302840111640100000000831117156101b957600080fd5b91908080601f016020809104026020016040519081016040528093929190818152602001838380828437600081840152601f19601f8201169050808301925050505050505091929192908035906020019064010000000081111561021c57600080fd5b82018360208201111561022e57600080fd5b8035906020019184600183028401116401000000008311171561025057600080fd5b91908080601f016020809104026020016040519081016040528093929190818152602001838380828437600081840152601f19601f820116905080830192505050505050509192919290505050610b2e565b604051808215151515815260200191505060405180910390f35b3480156102c857600080fd5b50610419600480360360408110156102df57600080fd5b81019080803590602001906401000000008111156102fc57600080fd5b82018360208201111561030e57600080fd5b8035906020019184600183028401116401000000008311171561033057600080fd5b91908080601f016020809104026020016040519081016040528093929190818152602001838380828437600081840152601f19601f8201169050808301925050505050505091929192908035906020019064010000000081111561039357600080fd5b8201836020820111156103a557600080fd5b803590602001918460018302840111640100000000831117156103c757600080fd5b91908080601f016020809104026020016040519081016040528093929190818152602001838380828437600081840152601f19601f820116905080830192505050505050509192919290505050610d7e565b604051808215151515815260200191505060405180910390f35b34801561043f57600080fd5b506104486110a4565b6040518082815260200191505060405180910390f35b34801561046a57600080fd5b506105bb6004803603604081101561048157600080fd5b810190808035906020019064010000000081111561049e57600080fd5b8201836020820111156104b057600080fd5b803590602001918460018302840111640100000000831117156104d257600080fd5b91908080601f016020809104026020016040519081016040528093929190818152602001838380828437600081840152601f19601f8201169050808301925050505050505091929192908035906020019064010000000081111561053557600080fd5b82018360208201111561054757600080fd5b8035906020019184600183028401116401000000008311171561056957600080fd5b91908080601f016020809104026020016040519081016040528093929190818152602001838380828437600081840152601f19601f8201169050808301925050505050505091929192905050506110aa565b604051808273ffffffffffffffffffffffffffffffffffffffff1673ffffffffffffffffffffffffffffffffffffffff16815260200191505060405180910390f35b34801561060957600080fd5b5061064c6004803603602081101561062057600080fd5b81019080803573ffffffffffffffffffffffffffffffffffffffff169060200190929190505050611383565b6040518080602001828103825283818151815260200191508051906020019080838360005b8381101561068c578082015181840152602081019050610671565b50505050905090810190601f1680156106b95780820380516001836020036101000a031916815260200191505b509250505060405180910390f35b3480156106d357600080fd5b506106dc611525565b005b3480156106ea57600080fd5b506106f36115b6565b6040518082815260200191505060405180910390f35b34801561071557600080fd5b506107456004803603602081101561072c57600080fd5b81019080803560ff1690602001909291905050506115bc565b005b34801561075357600080fd5b5061082d6004803603604081101561076a57600080fd5b81019080803573ffffffffffffffffffffffffffffffffffffffff169060200190929190803590602001906401000000008111156107a757600080fd5b8201836020820111156107b957600080fd5b803590602001918460018302840111640100000000831117156107db57600080fd5b91908080601f016020809104026020016040519081016040528093929190818152602001838380828437600081840152601f19601f820116905080830192505050505050509192919290505050611abf565b604051808215151515815260200191505060405180910390f35b34801561085357600080fd5b506108806004803603602081101561086a57600080fd5b8101908080359060200190929190505050611bd3565b604051808473ffffffffffffffffffffffffffffffffffffffff1673ffffffffffffffffffffffffffffffffffffffff1681526020018360ff1660ff168152602001828152602001935050505060405180910390f35b3480156108e257600080fd5b506108eb611c39565b6040518082815260200191505060405180910390f35b34801561090d57600080fd5b50610916611c3f565b6040518082815260200191505060405180910390f35b61095b6004803603602081101561094257600080fd5b81019080803560ff169060200190929190505050611c45565b005b34801561096957600080fd5b50610972611e06565b6040518082815260200191505060405180910390f35b34801561099457600080fd5b5061099d611e0c565b6040518082815260200191505060405180910390f35b3480156109bf57600080fd5b506109c8611e16565b604051808273ffffffffffffffffffffffffffffffffffffffff1673ffffffffffffffffffffffffffffffffffffffff16815260200191505060405180910390f35b348015610a1657600080fd5b50610ad060048036036020811015610a2d57600080fd5b8101908080359060200190640100000000811115610a4a57600080fd5b820183602082011115610a5c57600080fd5b80359060200191846001830284011164010000000083111715610a7e57600080fd5b91908080601f016020809104026020016040519081016040528093929190818152602001838380828437600081840152601f19601f820116905080830192505050505050509192919290505050611e3b565b604051808215151515815260200191505060405180910390f35b348015610af657600080fd5b50610aff611ec0565b6040518082815260200191505060405180910390f35b6000806000600454600654600554925092509250909192565b600060606007846040518082805190602001908083835b602083101515610b6a5780518252602082019150602081019050602083039250610b45565b6001836020036101000a03801982511681845116808217855250505050505090500191505090815260200160405180910390206000016040516020018080602001828103825283818154600181600116156101000203166002900481526020019150805460018160011615610100020316600290048015610c2c5780601f10610c0157610100808354040283529160200191610c2c565b820191906000526020600020905b815481529060010190602001808311610c0f57829003601f168201915b50509250505060405160208183030381529060405290506060836040516020018080602001828103825283818151815260200191508051906020019080838360005b83811015610c89578082015181840152602081019050610c6e565b50505050905090810190601f168015610cb65780820380516001836020036101000a031916815260200191505b509250505060405160208183030381529060405290506007856040518082805190602001908083835b602083101515610d045780518252602082019150602081019050602083039250610cdf565b6001836020036101000a038019825116818451168082178552505050505050905001915050908152602001604051809103902060030160009054906101000a900460ff168015610d61575080805190602001208280519060200120145b15610d7157600192505050610d78565b6000925050505b92915050565b60008060009054906101000a900473ffffffffffffffffffffffffffffffffffffffff1673ffffffffffffffffffffffffffffffffffffffff163373ffffffffffffffffffffffffffffffffffffffff16141515610ddf576000905061109e565b816007846040518082805190602001908083835b602083101515610e185780518252602082019150602081019050602083039250610df3565b6001836020036101000a03801982511681845116808217855250505050505090500191505090815260200160405180910390206000019080519060200190610e61929190611ec6565b5060086000600154815260200190815260200160002060000160009054906101000a900473ffffffffffffffffffffffffffffffffffffffff166007846040518082805190602001908083835b602083101515610ed35780518252602082019150602081019050602083039250610eae565b6001836020036101000a038019825116818451168082178552505050505050905001915050908152602001604051809103902060010160006101000a81548173ffffffffffffffffffffffffffffffffffffffff021916908373ffffffffffffffffffffffffffffffffffffffff1602179055506008600060015481526020019081526020016000206001016007846040518082805190602001908083835b602083101515610f975780518252602082019150602081019050602083039250610f72565b6001836020036101000a03801982511681845116808217855250505050505090500191505090815260200160405180910390206002019080546001816001161561010002031660029004610fec929190611f46565b5060016007846040518082805190602001908083835b6020831015156110275780518252602082019150602081019050602083039250611002565b6001836020036101000a038019825116818451168082178552505050505050905001915050908152602001604051809103902060030160006101000a81548160ff02191690831515021790555060016000815480929190600101919050555060026000815480929190600190039190505550600190505b92915050565b60025481565b600060606007846040518082805190602001908083835b6020831015156110e657805182526020820191506020810190506020830392506110c1565b6001836020036101000a038019825116818451168082178552505050505050905001915050908152602001604051809103902060000160405160200180806020018281038252838181546001816001161561010002031660029004815260200191508054600181600116156101000203166002900480156111a85780601f1061117d576101008083540402835291602001916111a8565b820191906000526020600020905b81548152906001019060200180831161118b57829003601f168201915b50509250505060405160208183030381529060405290506060836040516020018080602001828103825283818151815260200191508051906020019080838360005b838110156112055780820151818401526020810190506111ea565b50505050905090810190601f1680156112325780820380516001836020036101000a031916815260200191505b509250505060405160208183030381529060405290506007856040518082805190602001908083835b602083101515611280578051825260208201915060208101905060208303925061125b565b6001836020036101000a038019825116818451168082178552505050505050905001915050908152602001604051809103902060030160009054906101000a900460ff1680156112dd575080805190602001208280519060200120145b1561137a576007856040518082805190602001908083835b60208310151561131a57805182526020820191506020810190506020830392506112f5565b6001836020036101000a038019825116818451168082178552505050505050905001915050908152602001604051809103902060010160009054906101000a900473ffffffffffffffffffffffffffffffffffffffff169250505061137d565b50505b92915050565b60606000809054906101000a900473ffffffffffffffffffffffffffffffffffffffff1673ffffffffffffffffffffffffffffffffffffffff163373ffffffffffffffffffffffffffffffffffffffff161415156113e057600080fd5b60008090505b60015481101561151e578273ffffffffffffffffffffffffffffffffffffffff166008600083815260200190815260200160002060000160009054906101000a900473ffffffffffffffffffffffffffffffffffffffff1673ffffffffffffffffffffffffffffffffffffffff16141561151157600860008281526020019081526020016000206001018054600181600116156101000203166002900480601f0160208091040260200160405190810160405280929190818152602001828054600181600116156101000203166002900480156115045780601f106114d957610100808354040283529160200191611504565b820191906000526020600020905b8154815290600101906020018083116114e757829003601f168201915b5050505050915050611520565b80806001019150506113e6565b505b919050565b3373ffffffffffffffffffffffffffffffffffffffff166000809054906101000a900473ffffffffffffffffffffffffffffffffffffffff1673ffffffffffffffffffffffffffffffffffffffff1614156115b4576000809054906101000a900473ffffffffffffffffffffffffffffffffffffffff1673ffffffffffffffffffffffffffffffffffffffff16ff5b565b60055481565b60008160ff1614806115d1575060018160ff16145b806115df575060028160ff16145b15156115ea57600080fd5b60006009805490501115611a1c576000806000806000905060008560ff1614156116db5760008090505b6009805490508110156116d55760098181548110151561163057fe5b906000526020600020906002020160000160009054906101000a900473ffffffffffffffffffffffffffffffffffffffff1673ffffffffffffffffffffffffffffffffffffffff166108fc60098381548110151561168a57fe5b9060005260206000209060020201600101549081150290604051600060405180830381858888f193505050501580156116c7573d6000803e3d6000fd5b508080600101915050611614565b506119ef565b60018560ff161480156116f057506000600654115b156117a057600190506064600a6005540281151561170a57fe5b0491506000809054906101000a900473ffffffffffffffffffffffffffffffffffffffff1673ffffffffffffffffffffffffffffffffffffffff166108fc839081150290604051600060405180830381858888f19350505050158015611774573d6000803e3d6000fd5b50816004600082825403925050819055506006546127106004540281151561179857fe5b049250611862565b60028560ff161480156117b557506000600554115b1561186157600190506064600a600654028115156117cf57fe5b0491506000809054906101000a900473ffffffffffffffffffffffffffffffffffffffff1673ffffffffffffffffffffffffffffffffffffffff166108fc839081150290604051600060405180830381858888f19350505050158015611839573d6000803e3d6000fd5b50816004600082825403925050819055506005546127106004540281151561185d57fe5b0492505b5b80156119835760008090505b60098054905081101561197d578560ff1660098281548110151561188e57fe5b906000526020600020906002020160000160149054906101000a900460ff1660ff16141561197057612710846009838154811015156118c957fe5b906000526020600020906002020160010154028115156118e557fe5b0494506009818154811015156118f757fe5b906000526020600020906002020160000160009054906101000a900473ffffffffffffffffffffffffffffffffffffffff1673ffffffffffffffffffffffffffffffffffffffff166108fc869081150290604051600060405180830381858888f1935050505015801561196e573d6000803e3d6000fd5b505b808060010191505061186e565b506119ee565b6000809054906101000a900473ffffffffffffffffffffffffffffffffffffffff1673ffffffffffffffffffffffffffffffffffffffff166108fc6004549081150290604051600060405180830381858888f193505050501580156119ec573d6000803e3d6000fd5b505b5b60006009816119fe9190611fcd565b50600060048190555060006005819055506000600681905550505050505b60003073ffffffffffffffffffffffffffffffffffffffff16311115611abc576000809054906101000a900473ffffffffffffffffffffffffffffffffffffffff1673ffffffffffffffffffffffffffffffffffffffff166108fc3073ffffffffffffffffffffffffffffffffffffffff16319081150290604051600060405180830381858888f19350505050158015611aba573d6000803e3d6000fd5b505b50565b60008060009054906101000a900473ffffffffffffffffffffffffffffffffffffffff1673ffffffffffffffffffffffffffffffffffffffff163373ffffffffffffffffffffffffffffffffffffffff16141515611b205760009050611bcd565b8260086000600354815260200190815260200160002060000160006101000a81548173ffffffffffffffffffffffffffffffffffffffff021916908373ffffffffffffffffffffffffffffffffffffffff160217905550816008600060035481526020019081526020016000206001019080519060200190611ba3929190611ec6565b50600360008154809291906001019190505550600260008154809291906001019190505550600190505b92915050565b600981815481101515611be257fe5b90600052602060002090600202016000915090508060000160009054906101000a900473ffffffffffffffffffffffffffffffffffffffff16908060000160149054906101000a900460ff16908060010154905083565b60045481565b60015481565b6000809054906101000a900473ffffffffffffffffffffffffffffffffffffffff1673ffffffffffffffffffffffffffffffffffffffff163373ffffffffffffffffffffffffffffffffffffffff1614151515611ca157600080fd5b60018160ff161480611cb6575060028160ff16145b1515611cc157600080fd5b611cc9611fff565b33816000019073ffffffffffffffffffffffffffffffffffffffff16908173ffffffffffffffffffffffffffffffffffffffff168152505081816020019060ff16908160ff1681525050348160400181815250503460046000828254019250508190555060018260ff161415611d4e5734600660008282540192505081905550611d5f565b346005600082825401925050819055505b6009819080600181540180825580915050906001820390600052602060002090600202016000909192909190915060008201518160000160006101000a81548173ffffffffffffffffffffffffffffffffffffffff021916908373ffffffffffffffffffffffffffffffffffffffff16021790555060208201518160000160146101000a81548160ff021916908360ff160217905550604082015181600101555050505050565b60065481565b6000600254905090565b6000809054906101000a900473ffffffffffffffffffffffffffffffffffffffff1681565b60006007826040518082805190602001908083835b602083101515611e755780518252602082019150602081019050602083039250611e50565b6001836020036101000a038019825116818451168082178552505050505050905001915050908152602001604051809103902060030160009054906101000a900460ff169050919050565b60035481565b828054600181600116156101000203166002900490600052602060002090601f016020900481019282601f10611f0757805160ff1916838001178555611f35565b82800160010185558215611f35579182015b82811115611f34578251825591602001919060010190611f19565b5b509050611f42919061203a565b5090565b828054600181600116156101000203166002900490600052602060002090601f016020900481019282601f10611f7f5780548555611fbc565b82800160010185558215611fbc57600052602060002091601f016020900482015b82811115611fbb578254825591600101919060010190611fa0565b5b509050611fc9919061203a565b5090565b815481835581811115611ffa57600202816002028360005260206000209182019101611ff9919061205f565b5b505050565b606060405190810160405280600073ffffffffffffffffffffffffffffffffffffffff168152602001600060ff168152602001600081525090565b61205c91905b80821115612058576000816000905550600101612040565b5090565b90565b6120be91905b808211156120ba57600080820160006101000a81549073ffffffffffffffffffffffffffffffffffffffff02191690556000820160146101000a81549060ff0219169055600182016000905550600201612065565b5090565b9056fea165627a7a72305820826de2be7a5e2d0f9d5830b7406472b37b4477f8907b3b344fc386cd12e9eabd0029",
  "source": "pragma solidity >= 0.5.0 < 0.6.0;\n\ncontract BettingApp {\n    address payable public contractOwner;\n    uint public unusedAddressId;\n    uint public availableAddresses;\n    uint public newAddressId;\n    uint public totalBetAmount;\n    uint public totalBetUpAmount;\n    uint public totalBetDownAmount;\n\n    constructor() public {\n        contractOwner = msg.sender;\n        availableAddresses = 0;\n        unusedAddressId = 0;\n        newAddressId = 0;\n        totalBetAmount = 0;\n        totalBetUpAmount = 0;\n        totalBetDownAmount = 0;\n    }\n    \n    function destructor() public {\n        if(contractOwner == msg.sender) {\n            selfdestruct(contractOwner);\n        }\n    }\n    \n    struct User {\n        string password;\n        address assignedAddress;\n        string addressPassword;\n        bool exist;\n    }\n    mapping (string => User) users;\n    \n    struct AddressesPool {\n        address addressToAsign;\n        string password;\n    }\n    mapping (uint => AddressesPool) addresses;\n    \n    function registerUser(string memory _username, string memory _password) public returns (bool) {\n        if (msg.sender != contractOwner) return false;\n        users[_username].password = _password;\n        users[_username].assignedAddress = addresses[unusedAddressId].addressToAsign;\n        users[_username].addressPassword = addresses[unusedAddressId].password;\n        users[_username].exist = true;\n        unusedAddressId++;\n        availableAddresses--;\n        return true;\n    }\n\n    function checkIfUserExist(string memory _username) public view returns (bool) {\n        return users[_username].exist;\n    }\n\n    function logIn(string memory _username, string memory _password) public view returns (bool) {\n        bytes memory tempPass = abi.encode(users[_username].password);\n        bytes memory _tempPass = abi.encode(_password);\n        if (users[_username].exist && keccak256(tempPass) == keccak256(_tempPass)) {\n            return true;\n        } else {\n            return false;\n        }\n    }\n\n    function getUserLoggedInAddress(string memory _username, string memory _password) public view returns(address) {\n        bytes memory tempPass = abi.encode(users[_username].password);\n        bytes memory _tempPass = abi.encode(_password);\n        if (users[_username].exist && keccak256(tempPass) == keccak256(_tempPass)) {\n            return users[_username].assignedAddress;\n        }\n    }\n    \n    function createNewAddress(address _addressToAsign, string memory _password) public returns (bool){\n        if (msg.sender != contractOwner) return false;\n        addresses[newAddressId].addressToAsign = _addressToAsign;\n        addresses[newAddressId].password = _password;\n        newAddressId++;\n        availableAddresses++;\n        return true;\n    }\n\n    function getAddressPass(address _address) public view returns (string memory password) {\n        require(msg.sender == contractOwner);\n        for (uint i = 0; i < unusedAddressId; i++) {\n            if (addresses[i].addressToAsign == _address) {\n                return addresses[i].password;\n            }\n        }\n    }\n\n    function getAvailableAddresses() public view returns (uint number) {\n        return availableAddresses;\n    }\n    \n    struct Bet {\n        address payable playerAddress;\n        uint8 betType;\n        uint amount;\n    }\n    \n    Bet[] public Bets;\n    \n    function purchaseBet(uint8 _type) public payable {\n        require(msg.sender != contractOwner);\n        require(_type == 1 || _type == 2);\n        \n        Bet memory newBet;\n        newBet.playerAddress = msg.sender;\n        newBet.betType = _type;\n        newBet.amount = msg.value;\n        \n        totalBetAmount += msg.value;\n        \n        if (_type == 1)\n            totalBetDownAmount += msg.value;\n        else\n            totalBetUpAmount += msg.value;\n\n        Bets.push(newBet);\n    }\n    \n    function payWinnigBets(uint8 _winningType) public {\n        require(_winningType == 0 || _winningType == 1 || _winningType == 2);\n        if (Bets.length > 0) {\n            uint reward;\n            uint rewardCoefficient;\n            uint ethForHouse;\n            bool winningBets = false;\n\n            // if there was no change in price, return the funds to all users\n            if (_winningType == 0) {\n                for (uint i = 0; i < Bets.length; i++) {\n                    Bets[i].playerAddress.transfer(Bets[i].amount);\n                }\n            } else {\n                // check if there was winning bets, get 10% for the house and calculate reward coefficient\n                if (_winningType == 1 && totalBetDownAmount > 0) {\n                    winningBets = true;\n                    ethForHouse = totalBetUpAmount * 10 / 100;\n                    contractOwner.transfer(ethForHouse);\n                    totalBetAmount -= ethForHouse;\n                    rewardCoefficient = totalBetAmount * 10000 / totalBetDownAmount;\n                } else if (_winningType == 2 && totalBetUpAmount > 0) {\n                    winningBets = true;\n                    ethForHouse = totalBetDownAmount * 10 / 100;\n                    contractOwner.transfer(ethForHouse);\n                    totalBetAmount -= ethForHouse;\n                    rewardCoefficient = totalBetAmount * 10000 / totalBetUpAmount;\n                }\n                \n                // transfer funds to users that won if there were any\n                if (winningBets) {\n                    for (uint i = 0; i < Bets.length; i++) {\n                        if(Bets[i].betType == _winningType) {\n                            reward = Bets[i].amount * rewardCoefficient / 10000;\n                            Bets[i].playerAddress.transfer(reward);\n                        }\n                    }\n                } else {\n                    contractOwner.transfer(totalBetAmount);\n                }\n            }\n            \n            Bets.length = 0;\n            totalBetAmount = 0;\n            totalBetUpAmount = 0;\n            totalBetDownAmount = 0;\n        }\n        \n        // send remaining eth (if any) from contract to contractOwner\n        if (address(this).balance > 0) {\n            contractOwner.transfer(address(this).balance);\n        }\n    }\n\n    function BetStatistics() public view returns (uint _totalBetAmount, uint _totalBetDownAmount, uint _totalBetUpAmount) {\n        return (totalBetAmount,totalBetDownAmount,totalBetUpAmount);\n    }\n}",
  "sourcePath": "/home/velja/Desktop/BC-Academy/DAPPS/official/src/truffle/contracts/BettingApp.sol",
  "compiler": {
    "name": "solc",
    "version": "0.5.0+commit.1d4f565a.Emscripten.clang"
  },
  "schemaVersion": "3.0.1",
  "updatedAt": "2019-02-22T00:47:48.305Z",
  "devdoc": {
    "methods": {}
  },
  "userdoc": {
    "methods": {}
  }
}